:020000040800F2
:1000000000000320A9120008411200084312000852
:1000100045120008471200084912000800000000BD
:100020000000000000000000000000004B1200086B
:100030004D120008000000004F1200085112000885
:10004000F9120008F9120008F9120008F912000864
:10005000F9120008F9120008F9120008F912000854
:10006000F9120008F9120008F9120008F912000844
:10007000F9120008F9120008F9120008F912000834
:10008000F9120008F9120008F9120008F912000824
:10009000F9120008F9120008F9120008F912000814
:1000A000F9120008F9120008F9120008F912000804
:1000B000F9120008F9120008F9120008F9120008F4
:1000C000F9120008F9120008F9120008F9120008E4
:1000D000F9120008F9120008F9120008F9120008D4
:1000E000F9120008F9120008F9120008F9120008C4
:1000F000F9120008F9120008F9120008F9120008B4
:10010000F9120008F9120008F9120008F9120008A3
:10011000F9120008F9120008F9120008F912000893
:10012000F9120008F9120008F9120008F912000883
:10013000F9120008F9120008F9120008F912000873
:10014000F9120008F9120008F9120008F912000863
:10015000F9120008F9120008F9120008F912000853
:10016000F9120008F9120008F9120008F912000843
:10017000F9120008F9120008F91200080000000046
:10018000F9120008F9120008F9120008F912000823
:10019000F9120008F9120008F9120008F912000813
:0C01A000F9120008F9120008F91200081A
:1001AC0010B5054C237833B9044B13B10448AFF3A5
:1001BC0000800123237010BD0C0000200000000003
:1001CC00441300080C4B43B10C480D4910B5AFF368
:1001DC0000800C48036823B910BD0A48036833B982
:1001EC007047094B002BF7D0BDE810401847064B61
:1001FC00002BF5D0184700BF000000004413000886
:10020C00100000200C0000200000000053B94AB977
:10021C00002908BF00281CBF4FF0FF314FF0FF3002
:10022C0000F07AB9ADF1080C6DE904CE00F006F8D7
:10023C00DDF804E0DDE9022304B070472DE9F04756
:10024C008C460D460446089E002B51D18A42174617
:10025C006DD9B2FA82FEBEF1000F0BD0CEF1200C9C
:10026C0001FA0EF520FA0CFC02FA0EF74CEA050C1A
:10027C0000FA0EF44FEA174A250CBCFBFAF81FFAE9
:10028C0087F90AFB18CC45EA0C4508FB09F3AB428D
:10029C000AD9ED1908F1FF3280F02381AB4240F20C
:1002AC002081A8F102083D44ED1AA4B2B5FBFAF086
:1002BC000AFB105544EA054400FB09F9A14509D98C
:1002CC00E41900F1FF3380F00A81A14540F2078167
:1002DC0002383C44A4EB090440EA08400021002EFB
:1002EC0061D024FA0EF4002334607360BDE8F0870B
:1002FC008B4207D9002E54D0002186E821000846F5
:10030C00BDE8F087B3FA83F1002940F08E80AB4250
:10031C0002D3824200F2FA80841A65EB03050120B5
:10032C00AC46002E3FD086E81010BDE8F08712B91D
:10033C000127B7FBF2F7B7FA87FEBEF1000F34D1F5
:10034C00EB1B3A0C1FFA87FC0121B3FBF2F8250CCE
:10035C0002FB183345EA03450CFB08F3AB4207D903
:10036C00ED1908F1FF3002D2AB4200F2D180804689
:10037C00ED1AA3B2B5FBF2F002FB105543EA0544AB
:10038C000CFB00FCA44507D9E41900F1FF3302D2A1
:10039C00A44500F2B8801846A4EB0C0440EA0840CF
:1003AC009DE731463046BDE8F087CEF1200405FAD2
:1003BC000EF307FA0EF720FA04F83A0C25FA04F4B7
:1003CC0048EA0308B4FBF2F14FEA184502FB11446A
:1003DC001FFA87FC45EA044501FB0CF3AB4200FA1B
:1003EC000EF409D9ED1901F1FF3080F08A80AB428F
:1003FC0040F2878002393D44EB1A1FFA88F5B3FBB3
:10040C00F2F002FB103345EA034500FB0CF3AB4260
:10041C0007D9ED1900F1FF386FD2AB426DD9023814
:10042C003D44EB1A40EA01418FE7C1F1200722FA63
:10043C0007F88B4005FA01F448EA030320FA07FE9B
:10044C004FEA134CFD404EEA040EB5FBFCF94FEAA3
:10045C001E440CFB19551FFA83F844EA054509FBA9
:10046C0008F4AC4202FA01F200FA01FA08D9ED18CC
:10047C0009F1FF3043D2AC4241D9A9F102091D4424
:10048C002D1B1FFA8EFEB5FBFCF00CFB10554EEA33
:10049C00054400FB08F8A04507D9E41800F1FF3526
:1004AC0029D2A04527D902381C4440EA0940A4EBC4
:1004BC000804A0FB02894C45C6464D4615D312D004
:1004CC0056B1BAEB0E0364EB050404FA07F7CB4004
:1004DC001F43CC40376074600021BDE8F08718469C
:1004EC00F8E69046E0E6C245EAD2B8EB020E69EBBC
:1004FC0003050138E4E72846D7E7404691E78146F3
:10050C00BEE7014678E702383C4445E7084608E771
:10051C00A8F102083D442BE7704700BF10B5044614
:10052C000E4B18784FF47A73B3FBF0F30C4A106847
:10053C00B0FBF3F000F086F868B90F2C01D901205C
:10054C0010BD002221464FF0FF3000F049F8034B5C
:10055C005C60002010BD012010BD00BF0000002019
:10056C000800002008B50B4B1A6842F400721A60A0
:10057C001A6842F480621A601A6842F480721A6037
:10058C00032000F01BF80020FFF7C8FF00F008FE66
:10059C00002008BD003C0240034A1168034B1B7845
:1005AC000B441360704700BF28000020000000209F
:1005BC00014B1868704700BF28000020074AD36819
:1005CC0023F4E0631B041B0C000200F4E0601843EE
:1005DC0040F0BF6040F40030D060704700ED00E0A8
:1005EC0030B4164BDB68C3F30223C3F10704042CAD
:1005FC0028BF04241D1D062D17D9033B012505FA20
:10060C0004F4013C2140994005FA03F3013B1340EB
:10061C00194300280BDB0901C9B200F1604000F559
:10062C00614080F8001330BC70470023E6E700F00F
:10063C000F000901C9B2024B1954F4E700ED00E0B8
:10064C0014ED00E00138B0F1807F0AD2064B5860FF
:10065C00F021064A82F823100020986007221A60C5
:10066C0070470120704700BF10E000E000ED00E093
:10067C00042805D0054A136823F00403136070475F
:10068C00024A136843F004031360704710E000E063
:10069C00704708B5FFF7FCFF08BD0000F0B583B04C
:1006AC0000244BE04FEAD40E0EF1080E50F82E2029
:1006BC0004F00706B6000F27B74022EA07020F69BD
:1006CC0007FA06F6324340F82E2046E0092600E0F1
:1006DC00002606FA0EF632430233644E46F8232007
:1006EC00634B1A68EB4302EA03064F6817F4803F2A
:1006FC0001D045EA02065E4A1660526803EA020619
:10070C004F6817F4003F01D045EA0206584A56607C
:10071C00926803EA02064F6817F4801F01D045EA7D
:10072C000206534A9660D26813404E6816F4001FB6
:10073C0001D045EA02034E4AD36001340F2C00F27B
:10074C0092800123A3400A6803EA0205AB42F4D16C
:10075C004A68022AA6D0122AA4D006684FEA440E90
:10076C00032202FA0EF2D24316404F6807F0030739
:10077C0007FA0EF73E4306604E68771E012F03D929
:10078C00112E01D0122E0FD186681640CF6807FAB1
:10079C000EF73E438660466826EA03034E68C6F3AE
:1007AC000016A64033434360C3681A408B6803FAB3
:1007BC000EF31A43C2604B6813F0805FBDD0002368
:1007CC0001932C4B5A6C42F480425A645B6C03F4D8
:1007DC0080430193019BA3089E1C244A52F82620B7
:1007EC0004F003064FEA860E0F2606FA0EF622EAEE
:1007FC000602214FB8423FF46BAF204EB04222D0DC
:10080C0006F58066B04220D006F58066B0421ED058
:10081C0006F58066B0421CD006F58066B0421AD050
:10082C0006F58066B04218D006F58066B04216D048
:10083C0006F58066B04214D006F58066B0423FF4EF
:10084C0045AF0A2645E7012643E7022641E7032682
:10085C003FE704263DE705263BE7062639E7072652
:10086C0037E7082635E703B0F0BD00BF003801407C
:10087C00003C0140003802400000024000040240ED
:10088C000369194201D1002070470120704712B949
:10089C00090481617047816170470000002800F0F5
:1008AC00BB8170B582B00446036813F0010F3BD0D6
:1008BC00A74B9B6803F00C03042B2CD0A44B9B6818
:1008CC0003F00C03082B21D06368B3F5803F4FD0A5
:1008DC00B3F5A02F52D09E4B1A6822F480321A60C6
:1008EC001A6822F480221A606368002B50D0FFF73C
:1008FC005FFE0546964B1B6813F4003F14D1FFF7BF
:10090C0057FE401B6428F5D903208AE1904B5B68A5
:10091C0013F4800FD8D08E4B1B6813F4003F03D018
:10092C006368002B00F07A81236813F0020F55D016
:10093C00874B9B6813F00C0F3ED0854B9B6803F0E4
:10094C000C03082B33D0E368002B68D00122814BB9
:10095C001A60FFF72DFE05467D4B1B6813F0020F46
:10096C0054D1FFF725FE401B0228F5D9032058E18E
:10097C00774A136843F480331360B5E7744B1A68F5
:10098C0042F480221A601A6842F480321A60ABE793
:10099C00FFF70EFE05466E4B1B6813F4003FC3D0E9
:1009AC00FFF706FE401B6428F5D9032039E1684B9C
:1009BC005B6813F4800FC6D1654B1B6813F0020FF4
:1009CC0004D0E368012B01D001202AE1604A1368AE
:1009DC0023F0F803216943EAC1031360236813F081
:1009EC00080F40D0636963B301225B4B1A60FFF7B9
:1009FC00DFFD0546564B5B6F13F0020F33D1FFF74B
:100A0C00D7FD401B0228F5D903200AE1504A136890
:100A1C0023F0F803216943EAC1031360DEE70022E7
:100A2C004C4B1A60FFF7C4FD0546494B1B6813F08D
:100A3C00020FD3D0FFF7BCFD401B0228F5D90320D1
:100A4C00EFE00022444B1A60FFF7B2FD0546404B25
:100A5C005B6F13F0020F06D0FFF7AAFD401B0228B4
:100A6C00F5D90320DDE0236813F0040F79D0384B5F
:100A7C001B6C13F0805F33D100230193344B1A6C41
:100A8C0042F080521A641B6C03F080530193019B5B
:100A9C000125324B1B6813F4807F23D0A368012BF4
:100AAC0034D0052B38D02A4B1A6F22F001021A676A
:100ABC001A6F22F004021A67A368002B36D0FFF7D6
:100ACC0077FD0646224B1B6F13F0020F48D1FFF740
:100ADC006FFD801B41F288339842F3D90320A0E0CC
:100AEC000025D6E71D4A136843F480731360FFF7A3
:100AFC005FFD0646194B1B6813F4807FCED1FFF7C0
:100B0C0057FD801B0228F5D903208AE0104A136F89
:100B1C0043F001031367CFE70D4B1A6F42F0040249
:100B2C001A671A6F42F001021A67C5E7FFF740FD1A
:100B3C000646074B1B6F13F0020F11D0FFF738FD61
:100B4C00801B41F288339842F3D9032069E000BF3F
:100B5C000038024000004742800E474200700040BF
:100B6C00E5B9A369002B5BD0304A926802F00C0205
:100B7C00082A58D0022B17D000222D4B1A60FFF7F1
:100B8C0017FD0446294B1B6813F0007F42D0FFF77A
:100B9C000FFD001B0228F5D9032042E0234A136CF9
:100BAC0023F080531364DCE70022214B1A60FFF71B
:100BBC00FFFC05461D4B1B6813F0007F06D0FFF7AA
:100BCC00F7FC401B0228F5D903202AE0E369226ACE
:100BDC001343626A43EA8213A26A5208013A43EA57
:100BEC000243E26A43EA0263104A53600122104B4B
:100BFC001A60FFF7DDFC04460C4B1B6813F0007FFA
:100C0C0006D1FFF7D5FC001B0228F5D9032008E01C
:100C1C00002006E0002004E001207047012000E0E5
:100C2C00002002B070BD0120FBE700BF003802407D
:100C3C0060004742F8B5254B9B6803F00C03042B6E
:100C4C0041D0082B01D02248F8BD204B5A6802F045
:100C5C003F025B6813F4800F12D01C4B5968C1F330
:100C6C00881100231B48A1FB0001FFF7CFFA174B9B
:100C7C005B68C3F3014301335B00B0FBF3F0F8BDD9
:100C8C00124B5B68C3F388131E4600275C010025DA
:100C9C00E41A65EB0705A90141EA9461A001001B68
:100CAC0061EB0501CB0043EA5073C400A01943EB80
:100CBC0007018B0243EA9053840220461946002315
:100CCC00FFF7A4FAD3E70348F8BD00BF0038024091
:100CDC000024F40040787D01002800F09D8070B560
:100CEC0004464F4B1B6803F00F038B4209D2CBB267
:100CFC004B4A1370136803F00F03994201D0012083
:100D0C0070BD236813F0020F17D013F0040F04D03A
:100D1C00444A936843F4E0539360236813F0080F3C
:100D2C0004D0404A936843F4604393603D4A93680F
:100D3C0023F0F003A068034393600D46236813F07F
:100D4C00010F32D06368012B21D09A1E012A25D9BC
:100D5C00344A126812F0020F60D032498A6822F0CD
:100D6C00030213438B60FFF723FC06462D4B9B6855
:100D7C0003F00C036268B3EB820F16D0FFF718FC7C
:100D8C00801B41F288339842F0D9032070BD254A6C
:100D9C00126812F4003FE0D1012070BD214A1268A4
:100DAC0012F0007FD9D1012070BD1D4B1B6803F0E0
:100DBC000F039D4209D2EAB2194B1A701B6803F05B
:100DCC000F039D4201D0012070BD236813F0040F66
:100DDC0006D0144A936823F4E053E1680B43936004
:100DEC00236813F0080F07D00E4A936823F460436E
:100DFC00216943EAC1039360FFF71CFF094B9B6811
:100E0C00C3F30313084AD35CD840084B1860002086
:100E1C00FFF784FB002070BD01207047012070BDDE
:100E2C00003C0240003802405C130008080000201F
:100E3C00014B1868704700BF0800002070B588B0DF
:100E4C00002400941C4B1A6B42F080021A631A6B3C
:100E5C0002F080020092009A01941A6B42F0010297
:100E6C001A631A6B02F001020192019A02941A6B36
:100E7C0042F040021A631B6B03F040030293029B87
:100E8C000E4D22464FF4C0412846FFF700FD0126C7
:100E9C0003960494059403A90948FFF7FFFB4FF44C
:100EAC00C043039304960594069403A92846FFF7C0
:100EBC00F5FB08B070BD00BF0038024000180240BE
:100ECC000000024010B5044600230370FFF770FBCE
:100EDC00606010BD38B505460C4601210448FFF78B
:100EEC00CFFC20700023636023722B706B7038BDB5
:100EFC00000002400078704710B50446037A032BBB
:100F0C0009D8DFE803F0021F2B0F01211B48FFF764
:100F1C00B7FC012800D010BDFFF74AFB606003232B
:100F2C00237210BDFFF744FB63680F339842F2D96C
:100F3C0001211248FFF7A4FC0028ECD001232370F8
:100F4C00237210BD01210D48FFF79AFC0028E2D155
:100F5C00FFF72EFB60600223237210BDFFF728FB06
:100F6C0063680F339842D6D901210448FFF788FCF7
:100F7C000028D0D1002323702372CCE7000002405C
:100F8C0008B5012801D038B108BD01224FF4005139
:100F9C000548FFF77CFC08BD00224FF400510248C5
:100FAC00FFF775FCF0E700BF0018024008B50128F8
:100FBC0001D038B108BD01224FF480410548FFF73C
:100FCC0066FC08BD00224FF480410248FFF75FFC2D
:100FDC00F0E700BF0018024010B50446037813B1C7
:100FEC00012B11D010BDFFF7E3FA636803F57A7398
:100FFC00984200D810BD0120FFF7D8FF01232370C1
:10100C00FFF7D6FA606010BDFFF7D2FA636803F5FC
:10101C007A739842EED90020FFF7C8FF00232370A3
:10102C00FFF7C6FA6060E5E710B50446427803782E
:10103C000BBB12B1012A10D010BD0846FFF75AFFA6
:10104C0018B900232370637010BD0120FFF798FFBF
:10105C00002323700123637010BD0846FFF74AFF7D
:10106C0020B9012323700023637010BD002323706B
:10107C000123637010BD012B00D010BD12B1012AE9
:10108C000DD010BD0846FFF735FF20B901232370A2
:10109C000023637010BD01232370637010BD0846DC
:1010AC00FFF728FF18B1012323706370E5E7FFF702
:1010BC0067FF00232370637010BDFEE700B595B089
:1010CC0000220192254B196C41F0805119641B6C64
:1010DC0003F080530193019B029221490B6823F486
:1010EC00404343F480430B600B6803F4404302938A
:1010FC00029B0223089301230B9310230C930E9253
:10110C0008A8FFF7CBFBF0B90F2303930021049140
:10111C0005910691079103A8FFF7DEFDC0B9FFF713
:10112C0087FE104BA3FB00308009FFF78BFA0420DD
:10113C00FFF79EFA002211464FF0FF30FFF750FAEE
:10114C0015B05DF804FB40F267110748FFF7B5FFD7
:10115C0040F275110448FFF7B0FF00BF00380240A1
:10116C0000700040D34D62107413000800B587B0B6
:10117C0002A905A8FFF7AEFE6846FFF7A3FEFFF72E
:10118C00F1F9FFF79BFFFFF759FE02A905A8FFF73E
:10119C004BFF02A8FFF7B0FE6846FFF71DFFF4E710
:1011AC0010B582B000240094214B5A6C42F480425A
:1011BC005A645A6C02F480420092009A01941A6CA0
:1011CC0042F080521A641B6C03F080530193019B14
:1011DC000320FFF7F3F9224621466FF00B00FFF7CF
:1011EC00FFF9224621466FF00A00FFF7F9F9224673
:1011FC0021466FF00900FFF7F3F9224621466FF004
:10120C000400FFF7EDF9224621466FF00300FFF7CB
:10121C00E7F9224621466FF00100FFF7E1F922467B
:10122C0021464FF0FF30FFF7DBF902B010BD00BFD5
:10123C00003802407047FEE7FEE7FEE7FEE7704726
:10124C007047704708B5FFF7A7F9FFF722FA08BDFA
:10125C000F49D1F8883043F47003C1F888300D4B36
:10126C001A6842F001021A60002098601A6822F095
:10127C00847222F480321A60074A5A601A6822F487
:10128C0080221A60D8604FF000638B60704700BFFB
:10129C0000ED00E00038024010300024DFF834D0BC
:1012AC00002103E00C4B5B58435004310B480C4BB2
:1012BC0042189A42F6D30B4A02E0002342F8043B50
:1012CC00094B9A42F9D3FFF7C3FF00F011F8FFF76F
:1012DC004DFF70470000032094130008000000200D
:1012EC000C0000200C0000202C000020FEE7000069
:1012FC0070B50D4E0D4CA41BA4100025A54209D1B0
:10130C000B4E0C4C00F018F8A41BA4100025A542A1
:10131C0005D170BD56F8253098470135EEE756F8E3
:10132C00253098470135F2E78C1300088C13000820
:10133C008C13000890130008F8B500BFF8BC08BC6B
:10134C009E467047F8B500BFF8BC08BC9E46704777
:10135C000000000000000000010203040607080959
:10136C0000000000010203042E2E2F5372632F6D18
:08137C0061696E2E63000000A0
:08138400C4EEFF7F0100000030
:04138C00D101000883
:04139000AD010008A3
:0C13940001000000100000000024F40024
:04000005080012A934
:00000001FF
